{
  "contractName": "SimpleBank",
  "abi": [
    {
      "anonymous": false,
      "inputs": [
        {
          "indexed": true,
          "internalType": "address",
          "name": "user",
          "type": "address"
        },
        {
          "indexed": false,
          "internalType": "uint256",
          "name": "amount",
          "type": "uint256"
        }
      ],
      "name": "Deposit",
      "type": "event"
    },
    {
      "anonymous": false,
      "inputs": [
        {
          "indexed": true,
          "internalType": "address",
          "name": "user",
          "type": "address"
        },
        {
          "indexed": false,
          "internalType": "uint256",
          "name": "amount",
          "type": "uint256"
        }
      ],
      "name": "Withdrawal",
      "type": "event"
    },
    {
      "inputs": [],
      "name": "deposit",
      "outputs": [],
      "stateMutability": "payable",
      "type": "function"
    },
    {
      "inputs": [],
      "name": "getBalance",
      "outputs": [
        {
          "internalType": "uint256",
          "name": "",
          "type": "uint256"
        }
      ],
      "stateMutability": "view",
      "type": "function"
    },
    {
      "inputs": [
        {
          "internalType": "uint256",
          "name": "amount",
          "type": "uint256"
        }
      ],
      "name": "withdraw",
      "outputs": [],
      "stateMutability": "nonpayable",
      "type": "function"
    }
  ],
  "bytecode": "0x608060405234801561000f575f80fd5b506105798061001d5f395ff3fe608060405260043610610033575f3560e01c806312065fe0146100375780632e1a7d4d14610061578063d0e30db014610089575b5f80fd5b348015610042575f80fd5b5061004b610093565b6040516100589190610338565b60405180910390f35b34801561006c575f80fd5b506100876004803603810190610082919061037f565b6100d6565b005b61009161023c565b005b5f805f3373ffffffffffffffffffffffffffffffffffffffff1673ffffffffffffffffffffffffffffffffffffffff1681526020019081526020015f2054905090565b805f803373ffffffffffffffffffffffffffffffffffffffff1673ffffffffffffffffffffffffffffffffffffffff1681526020019081526020015f20541015610155576040517f08c379a000000000000000000000000000000000000000000000000000000000815260040161014c90610404565b60405180910390fd5b3373ffffffffffffffffffffffffffffffffffffffff166108fc8290811502906040515f60405180830381858888f19350505050158015610198573d5f803e3d5ffd5b50805f803373ffffffffffffffffffffffffffffffffffffffff1673ffffffffffffffffffffffffffffffffffffffff1681526020019081526020015f205f8282546101e4919061044f565b925050819055503373ffffffffffffffffffffffffffffffffffffffff167f7fcf532c15f0a6db0bd6d0e038bea71d30d808c7d98cb3bf7268a95bf5081b65826040516102319190610338565b60405180910390a250565b5f341161027e576040517f08c379a0000000000000000000000000000000000000000000000000000000008152600401610275906104f2565b60405180910390fd5b345f803373ffffffffffffffffffffffffffffffffffffffff1673ffffffffffffffffffffffffffffffffffffffff1681526020019081526020015f205f8282546102c99190610510565b925050819055503373ffffffffffffffffffffffffffffffffffffffff167fe1fffcc4923d04b559f4d29a8bfc6cda04eb5b0d3c460751c2402c5c5cc9109c346040516103169190610338565b60405180910390a2565b5f819050919050565b61033281610320565b82525050565b5f60208201905061034b5f830184610329565b92915050565b5f80fd5b61035e81610320565b8114610368575f80fd5b50565b5f8135905061037981610355565b92915050565b5f6020828403121561039457610393610351565b5b5f6103a18482850161036b565b91505092915050565b5f82825260208201905092915050565b7f496e73756666696369656e742066756e647300000000000000000000000000005f82015250565b5f6103ee6012836103aa565b91506103f9826103ba565b602082019050919050565b5f6020820190508181035f83015261041b816103e2565b9050919050565b7f4e487b71000000000000000000000000000000000000000000000000000000005f52601160045260245ffd5b5f61045982610320565b915061046483610320565b925082820390508181111561047c5761047b610422565b5b92915050565b7f4465706f73697420616d6f756e74206d757374206265206772656174657220745f8201527f68616e2030000000000000000000000000000000000000000000000000000000602082015250565b5f6104dc6025836103aa565b91506104e782610482565b604082019050919050565b5f6020820190508181035f830152610509816104d0565b9050919050565b5f61051a82610320565b915061052583610320565b925082820190508082111561053d5761053c610422565b5b9291505056fea2646970667358221220c4b84b5b8d98471dc733db42ad1746d64ef2c3e4a9d5bbfa1fa369b57d9cbbef64736f6c63430008150033",
  "immutableReferences": {},
  "source": "// SPDX-License-Identifier: MIT\npragma solidity ^0.8.0;\n\ncontract SimpleBank {\n    // Mapping to store user balances\n    mapping(address => uint256) private balances;\n\n    // Event to log deposits\n    event Deposit(address indexed user, uint256 amount);\n\n    // Event to log withdrawals\n    event Withdrawal(address indexed user, uint256 amount);\n\n    // Function to deposit Ether into the contract\n    function deposit() public payable {\n        require(msg.value > 0, \"Deposit amount must be greater than 0\");\n        balances[msg.sender] += msg.value;\n\n        emit Deposit(msg.sender, msg.value);\n    }\n\n    // Function to check the balance of the sender\n    function getBalance() public view returns (uint256) {\n        return balances[msg.sender];\n    }\n\n    // Function to withdraw Ether from the contract\n    function withdraw(uint256 amount) public {\n        require(balances[msg.sender] >= amount, \"Insufficient funds\");\n        payable(msg.sender).transfer(amount);\n        balances[msg.sender] -= amount;\n\n        emit Withdrawal(msg.sender, amount);\n    }\n}\n",
  "sourcePath": "/Users/basanireddy/Documents/projects/smart-contract-simulator/contracts/contract.sol",
  "compiler": {
    "name": "solc",
    "version": "0.8.21+commit.d9974bed.Emscripten.clang"
  },
  "schemaVersion": "3.4.16",
  "updatedAt": "2024-12-19T05:05:19.739Z",
  "devdoc": {
    "kind": "dev",
    "methods": {},
    "version": 1
  },
  "userdoc": {
    "kind": "user",
    "methods": {},
    "version": 1
  }
}